:100000000C9454010C949B010C949B010C949B0147
:100010000C949B010C949B010C949B010C949B01F0
:100020000C949B010C949B010C94961D0C946A1EDD
:100030000C941A190C949B010C949B010C949B0139
:100040000C949B010C949B010C949B010C949B01C0
:100050000C949B010C9465190C949B010C949B01CE
:100060000C949B010C949B010C949B010C949B01A0
:100070000C949B010C949B010C949B010C949B0190
:100080000C949B010C949B010C949B010C949B0180
:100090000C94B40C0C949B010C949B010C949B014C
:1000A0000C949B010C949B010C949B0135001E0049
:1000B0001F002000210022002E002B0014001A0037
:1000C0000800150017003100390004001600070071
:1000D00009000A000000E1001D001B0006001900D5
:1000E0000500000029000151E300E200E0002C00BF
:1000F0002A002D00270026002500240023003000C0
:100100002F00130012000C0018001C0031003400F6
:1001100033000F000E000D000B000000E50038005A
:10012000370036001000110000004F00520051004F
:100130005000E60028004C0001003A003B003C0063
:100140003D003E003F0001001E021F022F02300250
:10015000310201000100200221022F003000350091
:1001600000000100220223022602270235020000BD
:100170000100010001000100010001000100010077
:10018000450044004300420041004000000056008A
:10019000610060005F0054000100000057005E0035
:1001A0005D005C0055000000000058005B005A0034
:1001B0005900000000000000580063006200620067
:1001C000010001000E0349006300790064006F0024
:1001D0007800000006034D006500000004030904D8
:1001E00009023B00020100A0FA090400000103011A
:1001F00001000921110100012240000705810308C7
:10020000000A090401000103000000092111010096
:1002100001223B000705820320000A1201100100A1
:10022000000008EDFE43490001010200010501093B
:1002300006A1018505050719E029E71500250195A7
:1002400008750181020507190029EF1500250195A0
:10025000F0750181020508190129059505750191BF
:1002600002950175039101C005010906A101050769
:1002700019E029E71500250195087501810295010E
:10028000750881010507190029FF150026FF009553
:100290000675088100050819012905950575019164
:1002A00002950175039101C011241FBECFEFDAE062
:1002B000DEBFCDBF04B603FE27C0809156029091E9
:1002C0005702A0915802B09159028730904BA74035
:1002D000B04BD1F41092560210925702109258026D
:1002E0001092590214BE84B7877F84BF0FB6F8946A
:1002F000A8958091600088618093600010926000F2
:100300000FBEE0E0F8E3099511E0A0E0B1E0E4E021
:10031000F2E402C005900D92A233B107D9F722E0B2
:10032000A2E3B1E001C01D92A635B207E1F70E9439
:10033000D81A0C94D8200C940000882319F081302E
:1003400039F0089581E5611101C082E50C94AF0E8A
:100350008EE46111FBCF8BE4F9CF811113C06623CA
:1003600089F08091320181110EC084E091E00E94F9
:100370002B028FE10E94AF0E8091320191E089271C
:100380008093320108958BE1F5CF0E94040783E04A
:100390000C947207CF93DF939C013A9521153F414E
:1003A00068F5EC01CC27D170DC01AA27B270AC0152
:1003B000442754709C012227387094FF11C080E1BB
:1003C000CD2B09F480E0AB2B09F08062452B09F0BE
:1003D0008064232B09F08068FB01DF91CF910994A1
:1003E00081E0CD2B09F480E0AB2B09F08260452B36
:1003F00009F08460232B81F38860EECFDF91CF91E9
:100400000895CF93DF93EC01805E9109089720F067
:1004100061E071E1209711F462EC7EE0CE010E9470
:10042000CA018C2FDF91CF910C945C0ECF93DF9398
:10043000EC010E94870ECE01805E9109089720F0A2
:1004400068E071E1209711F469EC7EE0CE01DF9164
:10045000CF910C94CA01CF93DF93EC010E9401026B
:10046000CE01DF91CF910C94160281E0089581E0D6
:1004700008950C94370208950C943B021F93CF9378
:10048000DF9300D000D00F92CDB7DEB749835A83F7
:100490006B833091570189819A8131111DC0662388
:1004A000B9F02223A9F00E940316182F682F898122
:1004B0009A810E94AF1569817A81812F0F900F90E8
:1004C0000F900F900F90DF91CF911F910C94F90234
:1004D0000E94DB15182FEFCF0E94031669817A81E5
:1004E000EDCFFC01262F408151816281738184818F
:1004F0000C943E02CF93DF93EC0160E00E94710206
:10050000BE01DF91CF910C943C020E9447178111EC
:1005100002C00E94F4170E940C080C94C50180E0F0
:100520000E9421090C94E30408950E9419110E946D
:1005300094022FEF84E39CE0215080409040E1F74B
:1005400000C000000C9489190F931F93CF93DF9381
:10055000EC0161E00E9471028C01BE010E9439022F
:10056000882359F1BE01C8010E947807882329F128
:10057000BE01C8010E94BA098823F9F0BE01C80172
:100580000E940C0A8823C9F0BE01C8010E942F0BEB
:10059000882399F08A81882339F001158CE51807A2
:1005A00051F00F3D1C4579F0CE01DF91CF911F91A5
:1005B0000F910C9435020E94950280E0DF91CF915B
:1005C0001F910F9108950E94F417F7CF08950C948E
:1005D000E60281E008950C94E902CF93C82F0E94AF
:1005E000E7028C2FCF910C94EB0290E080E008950D
:1005F0000895972F70E027E0929F600D711D1124E0
:10060000FB0196E4899FE00DF11D1124EE0FFF1F01
:10061000E455FF4F859194910895FC01EE0FFF1F63
:10062000EC53FE4F859194910895CF93DF930E94F0
:10063000F9020E940804EC01811521E59207D0F52A
:10064000811530E5930708F096C081159042F8F4C3
:10065000C11581E0D807B8F4C03ED10588F4C03C8C
:10066000D10508F07BC0C130D10569F0209759F061
:10067000CE010497813A910530F0D0E0C0E003C08C
:10068000C83ED105D0F7CE01DF91CF910895C115B5
:1006900090E4D90708F06CC0CE019F70C11520E32B
:1006A000D20708F45EC0CE019927D3FF5EC0EC01EB
:1006B000D86CE9CF811535E5930700F5811544E540
:1006C000940708F08DC0C11583E5D80708F074C001
:1006D000C11592E5D90708F46AC0CE018370992745
:1006E00021E030E002C0220F331F8A95E2F7C69561
:1006F000C69580E2C89FE001112455C0811529E507
:100700009207A0F4811538E5930708F06EC08115B3
:1007100046E5940708F0B1CF0E949F04C82FD0E0AF
:10072000DC2FCC27CC27DF71D062ADCFC1158AE595
:10073000D80708F45FC0CE0190568115904208F0AA
:100740009CCF8D2F8F710E949F0490E0982F882757
:1007500088279F719C012C2BE901E6CFCE01805C9C
:1007600091090E940D03EC018ECFEC01D06C8BCF70
:10077000DF70D06A88CFE4E096958795EA95E1F737
:1007800083702C2F26952695237040E2249F90019C
:100790001124382B8C2F8370C1E0D0E002C0CC0F25
:1007A000DD1F8A95E2F7C22BD32BDC686CCFDC2FE0
:1007B000CC27C16FD06A67CFCE018370992721E023
:1007C00030E002C0220F331F8A95E2F7C695C69526
:1007D00090E2C99FE0011124C22BD32BDA6853CFDA
:1007E000D82FCC27C46FD06A4ECFD82FCC27C06F5C
:1007F000D06A49CF8C2F8F700E949F0434E0D69529
:10080000C7953A95E1F7CF709C2FEC01D0693BCFAB
:1008100082389105B1F1B0F48133910509F475C0C6
:1008200048F48932910509F469C08A32910509F4C6
:1008300073C008958533910509F459C08933910532
:1008400001F10895833E9105A9F138F4803E9105A8
:10085000F9F0823E910549F10895863E9105A9F18E
:10086000873E9105C9F1843E910519F52091480212
:1008700021FF1FC08091470284FD14C087EE90E0E5
:100880000895209147022370A1F080EE90E0089532
:100890002091470220FD47C03091480230FF09C037
:1008A00024FF44C090E080E004C02091470222FD74
:1008B000F7CF08952091470222FD3BC030914802B6
:1008C00030FDE3CF24FFF5CFEDCF2091470223FF8A
:1008D000F0CF24FDE7CFD2CF2091470223FD2CC0DB
:1008E0003091480231FFEECF84EE90E008952091E0
:1008F000470225FFDECF89E290E00895209147026C
:1009000025FFD7CF85E390E008952091470226FF89
:10091000D0CF8AE290E008952091470226FFC9CF08
:1009200081E390E0089589E390E0089583EE90E0FC
:10093000089582EE90E0089586EE90E008959091FB
:10094000470292FF06C0282F28712830F9F4877FCC
:10095000846093FF06C0282F28712831F1F4877E28
:1009600084612091480220FF06C0382F387138304A
:10097000D9F4877F816021FF06C0282F2871283194
:10098000D1F4877E816194FD877E0895282F24719C
:100990002430F9F68B7F8860DCCF282F2471243136
:1009A00001F78B7E8861DDCF382F3171313019F737
:1009B0008E7F8860E0CF282F2171213121F78E7E34
:1009C0008861E1CF08950C94E204E82FF0E0E85E3E
:1009D000FD4F80810895089580EA8A95F1F7089582
:1009E000F894E82FE295EF70F0E031A1282F2F70F6
:1009F00081E090E001C0880F2A95EAF7982F909542
:100A0000932391A392A1892B82A3789408950895AA
:100A1000CF93DF930E943D068091000180910001F9
:100A200095E0811190E09093230285E0891B8093EB
:100A3000220284E90E94F00485E30E94F00486E328
:100A40000E94F00482E30E94F00483E30E94F00419
:100A5000C0E1D1E089910E94F00481E0C731D8075C
:100A6000C9F7EEE0F2E0A8E1B2E011921D9282E057
:100A7000E831F807D1F785E00E94E8050E94850279
:100A8000DF91CF910C9447060E9421068823F9F04C
:100A90008091220290E0885E9D4F0E944E06811157
:100AA00013C0809133018F5F80933301863050F003
:100AB000E0912202F0E0E85EFD4F10821182128286
:100AC000138214820C948F0210923301FBCF809119
:100AD000230290E0885E9D4F0E9490060C940705CB
:100AE000CF92DF92EF92FF920F931F93CF93DF93FA
:100AF000C7E1D1E00EE012E0D12CEE24E394F12C1A
:100B00008991F894E82FE295EF70F0E021A18F70C1
:100B1000A70102C0440F551F8A95E2F7CA01922F20
:100B2000982B91A392A18095892382A378940E9407
:100B3000EC04E0E1F1E030E020E0C12C4191A42F91
:100B4000A295AF70B0E090968C9190E04F7002C08B
:100B5000959587954A95E2F780FD36C08E2D022E39
:100B600001C0880F0A94EAF7C82A2F5F3F4F273049
:100B7000310521F7FE01319780810E94F004F801D0
:100B80008081C81619F1C08281E0D82A0F5F1F4FFB
:100B9000F1E0CC31DF0709F0B3CF6091230270E0C0
:100BA000685E7D4F2D2D45E08EE092E00E94E905C4
:100BB0000E9444058D2DDF91CF911F910F91FF90E1
:100BC000EF90DF90CF90089580E0CECF80E0DDCF32
:100BD0000895FF920F931F93CF93DF93F82E092F61
:100BE000162FD72FC42F222349F081E0809336019E
:100BF0000E944A1990933501809334018091360107
:100C00008823A1F080913401909135010E945619FA
:100C1000069760F0EF2DF02FA12FBD2FCE0FDF2F05
:100C2000D11DEC17FD0741F410923601DF91CF91F1
:100C30001F910F91FF90089581918D93F2CF0C94A5
:100C4000F61780913701811111C08091D800806121
:100C50008093D8008AE18A95F1F700C09091D9007D
:100C6000892F817090FF82E08093370181E090911D
:100C70003701913009F080E008950E941F068093AB
:100C800000010E94210681110C94A00608950E9483
:100C90002106811102C00C94A20608950F931F93A0
:100CA000CF93DF930F92CDB7DEB704E610E025E0D7
:100CB00030E0AC0160E082E30E945F0C0E94A50678
:100CC000882361F10E94A906898390912A029817CE
:100CD00081F004E610E021E030E0AE014F5F5F4FAD
:100CE00065E082E30E94320C97FD03C08981809306
:100CF0002A0204E610E021E030E04BE252E066E038
:100D000082E30E945F0C8BE292E00E94EB0881E09C
:100D10000F90DF91CF911F910F91089580E0D4CF74
:100D2000FC0195E0A5E2B2E001900D929A95E1F701
:100D300080912A020E94AD078BE292E00C94E208B7
:100D40000C94590B82E30C94AE0C809124028170B8
:100D500008958091240286958695869508950E942F
:100D60004717811102C00E94F4170E9475178093E3
:100D70002402803320F0877088628093240290914F
:100D80002402892F817090FF04C0892F8695869553
:100D900086950C94AD0780912402982F9695969590
:100DA0009695953040F49F5F990F990F990F877032
:100DB000892B8093240280912402816080932402F5
:100DC0000E947917809124028695869586950C94C9
:100DD000AD0780912402982F987F79F088508093F6
:100DE0002402887F91E009F490E08091240290FB36
:100DF00080F9809324020E947917809124028695BD
:100E0000869586950C94AD078091240280FD13C0D1
:100E1000816080932402813019F489E08093240258
:100E2000809124020E9479178091240286958695EC
:100E300086950C94AD0708958091240280FF08C028
:100E40008E7F809324020E94791780E00C94AD0776
:100E500008958091240280FD0C941C070C940407D3
:100E600090912402892F8695869586958F5F8F7144
:100E700097708630D8F4880F880F880F892B80935D
:100E8000240280912402887F91E009F490E080910F
:100E9000240290FB80F9809324020E9479178091AC
:100EA00024028695869586950C94AD07909324022E
:100EB000E8CF863008F085E0909124029770282FC3
:100EC000220F220F220F922B90932402987F21E071
:100ED00009F420E09091240220FB90F990932402E1
:100EE0000C94AD070E945907809124020C94791745
:100EF0009C01FB018281882349F12E3BFCE53F07E1
:100F0000C9F040F42C3BECE53E0769F02D3B3C4535
:100F100079F00895203C9CE5390791F070F0213C70
:100F20003C4589F0089585E00E94720780E00895AD
:100F300080E0FACF0E94E906F9CF0E94CB06F6CFF7
:100F40000E942907F3CF0E943007F0CF81E0089577
:100F50003E9A4698089546980895CF92DF92EF9270
:100F6000FF92CF93C82F863040F5811127C0809122
:100F700090008F77809390000E94AB072C2F30E079
:100F8000AFEFBFEF0E947C2025E030E040E050E072
:100F90000E945420C9012C3764E13607A8F469E0A7
:100FA00070E00E942C207093990060939800CF917C
:100FB000FF90EF90DF90CF900895C5E08091900072
:100FC000806880939000DACF2A50374D4F4F5F4FA3
:100FD000942F832F722F662725EF38E241E050E0EF
:100FE0000E94542069017A01CA01B9010E941C20A3
:100FF0009B01AC01C701B6010E941C20672F782F0E
:10100000892F99276115710521E08207910559F60D
:101010006FEF7FEFC8CF08950E94A80782E8809302
:10102000900089E1809391008FEF9FEF909397005C
:10103000809396000C94AF0680910001811106C048
:1010400084EF8093020182E98093010120910201E3
:10105000A22FA295AF70B0E091963C9191972F701E
:1010600081E090E0BC01022E01C0660F0A94EAF70D
:10107000462F4095432391964C93919792963C919D
:101080009297362B92963C93929740910101E42FD0
:10109000E295EF70F0E031A14F70042E01C0880F8F
:1010A0000A94EAF7982F9095932391A392A1892B04
:1010B00082A390968C9190E002C0959587952A9591
:1010C000E2F7817020A130E002C0359527954A955E
:1010D000E2F792E020FF90E0892B80933D01909110
:1010E000000181E0982790933901891B8093380192
:1010F0000895CF93E0913D01EE0FEE0F2091020194
:10110000A22FA295AF70B0E090968C9190E02F70D6
:1011100002C0959587952A95E2F7817099274091AD
:101120000101A42FA295AF70B0E090962C9130E011
:101130004F7002C0359527954A95E2F7A901417095
:10114000552720FF02C042E050E0842BE82BE093BB
:101150003D01C0913901EF70F0E0EF5DFE4F8081FD
:1011600090913C01890F80933C0184306CF0EC2F0E
:101170000C2E000CFF0BE65CFE4F80818F5F80839E
:1011800060E08C2F0E949D0180913C018D3F6CF4AA
:10119000EC2F0C2E000CFF0BE65CFE4F8081815083
:1011A000808361E08C2F0E949D0180913C01082E7C
:1011B000000C990B64E070E00E94402080933C0199
:1011C000CF910895E0913901F0E0E65CFE4F208177
:1011D000FC0120830895FF920F931F93CF93DF9319
:1011E000D09138010D2F10E0065C1E4FFC01C0812C
:1011F000F8018081C81BFC2E1F1464F08C2FC7FDE2
:1012000080E0C81BC11110C0DF91CF911F910F91D9
:10121000FF900895FA94F80180818F5F808360E0E9
:101220008D2F0E949D01E8CFCF5FF8018081815012
:10123000808361E08D2F0E949D01E4CF08950C947E
:101240001E09CF93DF93C9B1D0E093E0D595C79540
:101250009A95E1F7C095D0956C2F617060933F012E
:1012600090913E01691302C0882381F080E00E94C2
:10127000AD01BE0161707727072E000C880B990B1A
:101280000E941F0980913F0180933E01DF91CF9121
:10129000089553985B9A81E00C9421090F931F9352
:1012A000CF93DF93C42FD22FFC0182818823C9F012
:1012B000409342010E944A1990934101809340015A
:1012C00080E28C0F883008F050C0C77081E001C008
:1012D000880FCA95EAF7DF91CF911F910F910C9477
:1012E000C20E10914201141335C0809140019091BB
:1012F00041010E945619883C910560F5C0E2CD0F6E
:101300001D17B9F080E2810F883040F4177081E03A
:1013100001C0880F1A95EAF70E94C90EC83048F438
:1013200081E09D2F977001C0880F9A95EAF70E947F
:10133000C20E802F0E94AF0EC830B8F4D77081E083
:1013400001C0880FDA95EAF7DF91CF911F910F91D5
:101350000C94C90E80E28C0F883038F4C77081E09D
:1013600001C0880FCA95EAF7EFCFDF91CF911F91A7
:101370000F9108950F939C01CB01243F4CE5340756
:1013800059F1A8F4293DFCE53F0701F12A3D4CE560
:101390003407D1F1283D3C4591F406E221EE41EEBF
:1013A00068ED7CE50E944E0980E00F910895263F8C
:1013B000FCE53F07E9F0B0F0273F3C45F9F0FC01C0
:1013C0008281882339F110924201EFCF07E225EEA6
:1013D00045EE69ED7CE5E6CF06E221EE40EE64EFF6
:1013E0007CE5E0CF07E225EE44EE65EF7CE5DACF61
:1013F00006E221EE42EE66EF7CE5D4CF07E225EE71
:1014000046EE67EF7CE5CECF08E221E045EE6AEDDF
:101410007CE5C8CF81E0C9CFCF93DF93EC01FB011E
:101420008281882309F419C1C230FCE5DF07C0F1CD
:10143000C6319CE5D90730F09E012B5F3C45293031
:10144000310570F50E945A17909348028093470225
:10145000C031ECE5DE0709F4CFC008F05BC0C8304E
:101460008CE5D80709F4B6C088F5C430ECE5DE0792
:1014700009F4A8C0C0F4C2308CE5D80709F49CC0B8
:10148000809147028260C330DC4509F498C08091A6
:101490004702909148020E9468170E94191180E04B
:1014A000DF91CF910895809147028061C630ECE5CD
:1014B000DE0709F484C0809147028860C730DC45AC
:1014C00008F47DC080914702806279C0CC308CE501
:1014D000D80709F489C070F4809147028C60CA3043
:1014E000ECE5DE0709F46BC008F478C08091470290
:1014F0008E7F65C0CE308CE5D80709F479C0809125
:1015000047028B7FCF30DC4508F459C080914702F9
:101510008F7E55C0CC3FECE5DE0709F457C030F5AF
:10152000C3318CE5D80709F46FC078F4C131ECE51C
:10153000DE0709F465C0C231DC4509F0A8CF0E947E
:101540001911809147028F773AC0C5318CE5D807D1
:1015500009F462C008F476C0809148028160CB3FF4
:10156000DC4509F094CF8093480291CFC115FDE589
:10157000DF0709F44DC088F4809148028D7FCE3F8B
:101580009CE5D90781F3809148028E7FCF3FDC45EF
:1015900050F3809148028360E6CFC230FDE5DF075B
:1015A00009F459C008F444C080E0C330DD4509F0B7
:1015B0006ECF0E9400186BCF8091470281608093AC
:1015C000470265CF809147028460F9CF809148023D
:1015D0008260C9CF809147028064F1CF0E941911C7
:1015E000809147028068EBCF809147028D7FE7CFE3
:1015F00080914702877FE3CF809147028F7DDFCFC5
:10160000809147028F7BDBCF80914702837FD7CFCA
:10161000809148028C7FA7CF8091470282FB992757
:1016200090F921E0922790FB82F990FB83F9C7CFD4
:1016300080914802982F909591708E7F892B90FB16
:1016400081F991CF0E94191190914702892F97FB40
:1016500087F98058B4CF81E0ACCF81E021CFCF9320
:10166000DF93EB0186319C4511F50E9498169A8113
:10167000992399F08A7A91E009F490E090934301DC
:10168000811109C089E20E9473160E94E41680E06D
:10169000DF91CF91089585E3F6CF809143018111C9
:1016A00004C089E20E947A16F0CF85E3FBCF81E087
:1016B000EFCF1092B90088E48093B8000895EF92BC
:1016C000FF920F931F93CF93DF93182FEB0110928C
:1016D000BC0084EA8093BC000E944A197C0180917E
:1016E000BC0087FF27C08091B900887F883029F02F
:1016F0008091B900887F8031D9F51093BB0084E8D0
:101700008093BC000E944A198C018091BC0087FF25
:1017100024C02091B900287F90E080E02831B1F00A
:1017200081E090E0203411F490E080E09195819583
:1017300091090CC0CF3FDC0791F20E944A198E1923
:101740009F098C179D0758F28EEF9FEFDF91CF9185
:101750001F910F91FF90EF900895CF3FDC07A9F202
:101760000E944A19801B910B8C179D0770F2ECCFD9
:101770008FEF9FEFEBCF0F931F93CF93DF93EB018F
:101780008093BB0084E88093BC000E944A198C01BE
:101790008091BC0087FF11C02091B900287F81E0B3
:1017A00090E0283211F490E080E0919581959109C4
:1017B000DF91CF911F910F910895CF3FDC0741F347
:1017C0000E944A19801B910B8C179D0708F38EEF1E
:1017D0009FEFEECF0F931F93CF93DF93EC0184EC39
:1017E0008093BC000E944A198C018091BC0087FF45
:1017F00008C08091BB0090E0DF91CF911F910F91C5
:101800000895CF3FDC0789F30E944A19801B910B92
:101810008C179D0750F38EEF9FEFEECF0F931F9322
:10182000CF93DF93EC0184E88093BC000E944A19B7
:101830008C018091BC0087FF08C08091BB0090E0C4
:10184000DF91CF911F910F910895CF3FDC0789F36E
:101850000E944A19801B910B8C179D0750F38EEF45
:101860009FEFEECFCF92DF92EF92FF920F931F93F5
:10187000CF93DF93C62F6A017901B8010E945F0BF5
:1018800097FD0CC0B8018C2F0E94BB0BE601EC0C3D
:10189000FD1CCE15DF0511F097FF0CC024E9209345
:1018A000BC00DF91CF911F910F91FF90EF90DF90DF
:1018B000CF900895B80189910E94BB0BEACFCF92D7
:1018C000DF92EF92FF920F931F93CF93DF93F82E47
:1018D000E62EEA016901B8010E945F0B97FD15C071
:1018E000B8018E2D0E94BB0B97FD0FC0B8018F2D44
:1018F00081600E945F0BF12CE12C21E0C21AD1081B
:10190000EC14FD0400F597FF11C024E92093BC00FE
:101910001816190614F490E080E0DF91CF911F9122
:101920000F91FF90EF90DF90CF900895C8010E9433
:10193000EA0B97FD04C0FE01EE0DFF1D80832FEF23
:10194000E21AF20ADDCF97FDE0CFC8010E940E0C2B
:1019500097FDDBCFCC0DDD1D8883D7CF8093BA00F8
:1019600085EC8093BC0008951F921FB61F9211242E
:101970008F939F93EF93FF938091B900887F803876
:10198000C1F038F4882309F448C0803679F081E04A
:1019900022C0883A11F0883BD1F7E0914501F0E090
:1019A000EB5DFD4F80818093BB0031C010924401FC
:1019B000EECF80914401811122C08091BB008093C1
:1019C0004501809145018E31C0F01092450180E0C3
:1019D00091E0909344019091BC008295880F880F0C
:1019E000807C892B85688093BC00FF91EF919F914B
:1019F0008F911F901FBE1F90189581E0E9CFE09155
:101A00004501F0E08091BB00EB5DFD4F808380914C
:101A100045018F5F80934501BACF1092BC00B7CFCC
:101A200090934B0180934A010895E0914A01F0910F
:101A30004B01309721F00190F081E02D099480E076
:101A40000895E0914A01F0914B01309799F020916F
:101A50000F01222359F02091470227FF07C0DC0124
:101A60002C9111962C93119725E02C930280F381F1
:101A7000E02D0994089520914801309149012817DB
:101A8000390771F09093490180934801E0914A0130
:101A9000F0914B01309721F00680F781E02D0994F9
:101AA000089520914601309147012817390771F0B8
:101AB0009093470180934601E0914A01F0914B01D8
:101AC000309721F00084F185E02D0994089585B7C1
:101AD000806885BF85B7806885BF0895089508959B
:101AE0000C946E0D08950C94720D0E94670D0E9467
:101AF0006F0D0C94700D0C942106089508950E94AA
:101B000041190E9408050E949A190E94AF060E947E
:101B10001C080E9449090C94730DAF92BF92CF929A
:101B2000DF92EF92FF920F931F93CF93DF93CDB786
:101B3000DEB72A970FB6F894DEBF0FBECDBF0E9466
:101B40007D0D0E947E0D0E9470050E947B0D8823F2
:101B500009F461C08DE4A82E81E0B82E10E000E009
:101B6000C02E802F0E94E504E82EF501D1905F0180
:101B7000D81609F44AC08091EA0181FD0E94EB0465
:101B800080E0FF24F394DE249D2D9F21C9F18E83F4
:101B9000CF82EF2081E009F480E088870E944A1913
:101BA0008160782F9A8789874E815F8168858A85D1
:101BB0000E942D0EF801E35BFE4F8081F826F08233
:101BC0000E940B080E9479080E94150D90914C010B
:101BD000891791F10E94150D80934C012A960FB63A
:101BE000F894DEBF0FBECDBFDF91CF911F910F9153
:101BF000FF90EF90DF90CF90BF90AF900C94ED02EC
:101C00008F5FFF0C873009F0BFCF0F5F1F4F0A3087
:101C1000110509F0A5CF8FEF89838A831B820E946B
:101C20004A198160782F9D838C8349815A816B8109
:101C30008D810E942D0EC4CF2A960FB6F894DEBF78
:101C40000FBECDBFDF91CF911F910F91FF90EF900D
:101C5000DF90CF90BF90AF900895CF93DF93CDB733
:101C6000DEB72B970FB6F894DEBF0FBECDBF4F8304
:101C7000588769877A878B871E821D8285E0FE01DF
:101C80003796DE01119601900D928A95E1F7498110
:101C90005A816B817C818D819E812B960FB6F89441
:101CA000DEBF0FBECDBFDF91CF910C948F13FC012F
:101CB000808191810C944516CF93C82F882329F1F8
:101CC0008CEF8C0F813AA0F46C2F809103019091DE
:101CD00004010E941918882329F08C2F0E947A167B
:101CE0000E94E4168C2F0E947316CF910C94E41678
:101CF00080E28C0F883048F4C77081E001C0880F03
:101D0000CA95EAF70E949B16F0CFCF9108958823D9
:101D100029F19CEF980F913A20F40E947A160C94C6
:101D2000E41690E2980F983050F4877091E001C06B
:101D3000990F8A95EAF7892F0E94A116F0CF9BE5AB
:101D4000980F933020F490E080E00C943B0D885A7B
:101D5000873120F490E080E00C94510D0895CF93EA
:101D6000C82F0E945C0EC93349F42FEF87EE93E031
:101D7000215080409040E1F700C000008C2FCF91AF
:101D80000C94870E882321F00E949B160C94E41675
:101D90000895882321F00E94A1160C94E41608955A
:101DA000BF92CF92DF92EF92FF920F931F93CF9348
:101DB000DF936C01D62FC72FFC01158112951F7080
:101DC000028101110E94B8160E949116E82E882304
:101DD00091F00023D1F08C2F807F803421F080E2BD
:101DE0008D0F883090F082E00E942F170E9491168C
:101DF00091E0E82EE926BC2EB2949FE0B922EB2DAB
:101E0000F0E0E652FF4D0C947620E12CF4CF1C2F2D
:101E10001F70C07F11F01295107F0023A9F01123CD
:101E200059F080E28D0F883010F0D11109C0812F58
:101E30000E949B160E94E4168D2F0E945C0E14C017
:101E4000812F0E94AB16F6CF8D2F0E94870E112393
:101E500059F080E28D0F883010F0D1112CC0812F05
:101E60000E94A1160E94E4162B2D2850330B24301B
:101E7000310520F40E94150D0E94ED02EE2009F4B8
:101E800077C10E948D1680FD73C1F60112820E94F7
:101E900087160E941315C6010E94D9100E9487164A
:101EA000DF91CF911F910F91FF90EF90DF90CF9036
:101EB000BF900C943415812F0E94B116D3CFFC2F04
:101EC000FF70FF2EC07FC03219F0F29480EFF8222D
:101ED000DD2369F0D13049F1002391F1112351F153
:101EE000F601858180FFA8CF8F70858323C00023F2
:101EF00081F0111106C00E94CB168F290E94C20EDC
:101F0000B3CF1130C1F70E94CB168F290E94D11692
:101F1000ABCF111106C00E94DA168F2D0E94C90E98
:101F2000A3CF113009F4A0CFF6CF002329F016304B
:101F300008F09ACF8F2DE2CF153008F095CFEDCF76
:101F4000112359F3D93349F4FFEF27EE33E0F15071
:101F500020403040E1F700C000008D2F0E94870E26
:101F600083CF8C2F837009F041C001117DCF4D2F9D
:101F7000429546954770440F440F0D2F0F7010E0A7
:101F800030E020E0042E04C0000F111F221F331F79
:101F90000A94D2F760E070E0CB01D4FF0FC06FE08D
:101FA00070E080E090E004C0660F771F881F991FE3
:101FB0004A95D2F76095709580959095C695C6958F
:101FC000C370602B712B822B932BC23049F058F4D5
:101FD000C13019F00E94C51447CF0E94B31444CFFA
:101FE0000E94D71441CF0E94B1143ECF86950023A2
:101FF00011F08C2F8170882309F436CF4D2F429534
:1020000046954770440F440F0D2F0F7010E030E0DD
:1020100020E0042E04C0000F111F221F331F0A945A
:10202000D2F760E070E0CB01D4FF0FC06FE070E04A
:1020300080E090E004C0660F771F881F991F4A95C3
:10204000D2F76095709580959095C695C695C370AA
:10205000602B712B822B932BC23049F058F4C13086
:1020600019F00E948A1500CF0E947815FDCE0E94BB
:102070009C15FACE0E94ED14F7CECF70002329F004
:102080008C2F0E9413158D2F39CF8D2F0E94C90ED2
:102090008C2F0E943415E8CED23F89F160F4D03FF6
:1020A000C9F0D13F29F1002309F442C01111C4CE77
:1020B0008C2F8F7121C0D33F39F1D43FA1F700237A
:1020C00069F1CF718C2F0E94131563E08C2F0E9451
:1020D0001A17CACE002341F0153008F0C5CE8C2F58
:1020E0008F710E945715C0CE163008F0BDCEF7CFC5
:1020F0008C2F8F71002369F20E941315B5CE8C2F9F
:102100008F710023C9F3C5CF002329F08C2F8F7165
:102110000E94FE14A9CE0E94F914A6CE81E00E946E
:102120002F17123008F4A0CE82E00E942F179CCE09
:10213000112359F0D93309F010CF8FEF97EEE3E078
:1021400081509040E040E1F706CF8C2F8F71A1CFF6
:102150004C2F4F706D2FC6010E94F5020E9429146A
:1021600083CE4C2F4F706D2FC6010E94F8027CCE9B
:10217000DF91CF911F910F91FF90EF90DF90CF9063
:10218000BF9008950F931F93CF93DF93EC01688165
:1021900079818A810E944F168C010E94AE150E949F
:1021A000B014B801CE01DF91CF911F910F910C9423
:1021B000D00ECF93DF93EC018B819C81892B29F08A
:1021C0008881998189238F3F59F4DF91CF910895B8
:1021D000CE010E94C210CE01DF91CF910C947A0201
:1021E000CE010E94A4028111F3CF0E949116882390
:1021F00061F38A81882349F382E0DF91CF910C94C7
:102200002F17882321F00E94AB160C94E416089532
:10221000882321F00E94B1160C94E41608950E94C0
:10222000B8160E94C8160C94E4160E9481160C94ED
:102230000F110E94A8160C941511E92FE295EF706A
:10224000E250EE3070F4F0E0E651FF4D0C94762051
:10225000803F19F020F4883E20F481E00895843F07
:10226000E1F380E00895883EC0F3813FD1F7F5CFD8
:1022700093FB882780F908950E9445160C941D1140
:10228000CF93DF9300D000D00F92CDB7DEB70F9081
:102290000F900F900F900F90DF91CF910895CF93F3
:1022A000DF9300D000D000D0CDB7DEB726960FB6B2
:1022B000F894DEBF0FBECDBFDF91CF9108951F937D
:1022C000CF93DF93C091580116E0809159018C1390
:1022D00004C0DF91CF911F910895D0E01C9FF001C1
:1022E0001D9FF00D1124E65AFE4F408151816281FD
:1022F0007381848195810E944F112196C770E5CF2B
:1023000040918A0150918B0160918C0170918D01F7
:1023100080918E0190918F010C944F111F93CF9358
:10232000DF9380918F01807FA9F480918C018823B5
:1023300089F080915801C091590160918A01709192
:102340008B01A0918D01B0918E01D62FD72316E07D
:10235000C81304C0DF91CF911F91089590E01097AA
:1023600011F0DF3F19F401968770F2CF189F9001AA
:10237000199F300D1124F901E65AFE4F4181471390
:10238000F2CF40814613EFCF42814111ECCF438120
:1023900054814A1B5B0B483C510528F780918F0103
:1023A0008F70806180938F01F901E15AFE4F808127
:1023B0008F70806180838AE891E00E94D910DF915C
:1023C000CF911F910C945F11AF92BF92CF92DF9289
:1023D000EF92FF920F931F93CF93DF93CDB7DEB7AA
:1023E00061970FB6F894DEBF0FBECDBF8C0185E0BC
:1023F000F801DE011D9601900D928A95E1F7F80132
:1024000040815181E2808AE8C82E81E0D82E609117
:102410008D0170918E016115710509F461C1909172
:102420008A0120918B01892F82238F3F09F458C1A3
:10243000A380B480F0908C01F501E61BF70BFF2020
:1024400009F4FCC080918F01382F307FE83CF10502
:1024500008F0B2C0311179C0FE2C251323C09413AB
:1024600021C0E1101FC08F70806180938F010E9496
:102470008011C6010E94D91080918F01F8018583D7
:102480008F2D61960FB6F894DEBF0FBECDBFDF91E2
:10249000CF911F910F91FF90EF90DF90CF90BF9061
:1024A000AF900895AB2829F0842F85238F3F09F042
:1024B00033C180E0F82FF170DF2E80FF3CC08091A7
:1024C00058012091590136E0821315C04D875E876F
:1024D0008D859E850E944516292F22952F702230CA
:1024E000F0F0243018F59F70F1F0F8019581907F9D
:1024F000D1F4D12C1EC090E0389FF001399FF00D2F
:102500001124E65AFE4F6181651306C06081641391
:1025100003C062816E110FC001968770D5CF9F7086
:1025200011F0882331F3805E883018F3C8010E94CF
:10253000D910FD2CA5CFEE2009F4A2CF80918F01F8
:10254000816080938F01F12C9BCF251306C09413DB
:1025500004C0F801EE2009F48DC04D875E878D859B
:102560009E850E943C11882319F1EE2009F180918B
:102570008F01803270F020918A0130918B01388771
:102580002F831986BB86AA868C87CE0107960E9468
:10259000D91086E0F801AAE8B1E001900D928A9581
:1025A000E1F70E948E110E948011FF24F39468CFFE
:1025B000C8010E94D910F9CF311113C07A2DB98A00
:1025C000A88A6E2D89890E9440118AE891E00E94B4
:1025D000D91086E0F60111928A95E9F70E948011E0
:1025E000B2CF25130FC094130DC0E1100BC0F8013A
:1025F0008583C8010E94D91086E0F60111928A9560
:10260000E9F73ECF4D875E878D859E850E943C1100
:10261000882371F2EE2061F280918F01803208F4FC
:10262000B8CF20918A0130918B013A8329831B8294
:10263000BD82AC828E83CE010196A9CFE83CF10524
:1026400008F041C0FE2CEE2009F4B2CF25132AC0B9
:10265000941328C080918F0180FD1BC0982F907F1C
:10266000C1F0F8018583903F31F0982F907F905F03
:102670008F70892B8583C8010E94D91086E0F801EC
:10268000AAE8B1E001900D928A95E1F70E948011CD
:10269000F7CE86E0F801AAE8B1E001900D928A95A4
:1026A000E1F7EECE4D875E878D859E850E943C11B9
:1026B00081116FCF80918F01816080938F01C8015C
:1026C0000E94D910DDCE7A2DB98AA88A6E2D89890B
:1026D0000E94401186E0F60111928A95E9F7D6CF63
:1026E000EE2009F465CF4D875E878D859E850E941B
:1026F0003C11F82E882309F45BCF86E0F801AAE8A4
:10270000B1E001900D928A95E1F78AE891E00E948C
:10271000570E0E948E11BACF81E08E25CBCE1F932B
:10272000CF93DF93CDB7DEB72C970FB6F894DEBF0B
:102730000FBECDBF4F83588769877A878B879C8769
:10274000CE0107960E94E411882369F08A859B8553
:10275000892B39F04F815885842F85238F3F09F0CD
:1027600071C016E05FC086E0FE013796DE0111966B
:1027700001900D928A95E1F78A859B85892B89F3D3
:1027800088859F8189238F3F61F32091590130E033
:10279000C901019687709927409158014817190679
:1027A00071F40E941911109259011092580186E09B
:1027B000EAE8F1E0DF011D928A95E9F7D2CF96E0D1
:1027C000929FD001939FB00D1124A65ABE4FFE01D7
:1027D000319601900D929A95E1F7809359010E94EC
:1027E0005F11BFCF819FC0011124865A9E4F0E9466
:1027F000E4118823E9F0E09158011E9FF0011124B3
:10280000E65AFE4F408151816281738184819581B6
:102810000E944F118091580190E00196877099278E
:102820008093580180915801909159018913DACF12
:102830002C960FB6F894DEBF0FBECDBFDF91CF91BF
:102840001F91089569857A858B859C850E944F111B
:1028500088CFEF92FF920F931F93CF93DF938C015A
:10286000892B81F0F12CEE24E394E8012196F80104
:102870008491843770F4843008F05FC08130B1F007
:102880008230A1F1DF91CF911F910F91FF90EF90D6
:102890000895853709F44CC008F43DC09CE7980FB3
:1028A000903780F78F770E94870E49C00E5F1F4FC9
:1028B000FE01849190E2980F983060F48770FE2DAD
:1028C00001C0FF0F8A95EAF78F2F0E94BB160E9466
:1028D000E41602C00E945C0E8F2D815030F2EFE9A9
:1028E000FFE03197F1F700C00000F7CF0E5F1F4FF8
:1028F000FE01849190E2980F983050F48770FE2D7D
:1029000001C0FF0F8A95EAF78F2F0E94C116DFCF13
:102910000E94870EE1CF0E5F1F4FFE01C491C15090
:10292000D8F28FE99FE00197F1F700C00000F7CFE0
:102930000E5F1F4FFE01F490CFCF0E945C0E8E0100
:10294000CBCF08950C94A1140E94A2146093C101EE
:102950007093C2018093C3019093C4010C940F1132
:1029600008950C94A4140F931F930091C10110912A
:10297000C2012091C3013091C401602B712B822BC5
:10298000932B1F910F910C94A4140F931F930091FC
:10299000C1011091C2012091C3013091C401602393
:1029A0007123822393231F910F910C94A4140F93EE
:1029B0001F930091C1011091C2012091C301309178
:1029C000C40160277127822793271F910F910C94D0
:1029D000A4140C94A1140C94E9140E94EB146093B9
:1029E000BD017093BE018093BF019093C0010C9410
:1029F0000F1160E070E0CB010C94ED140F931F9366
:102A000041E050E060E070E08A019B0104C0000FEB
:102A1000111F221F331F8A95D2F7C901B8011F91D8
:102A20000F910C94ED140F931F9341E050E060E080
:102A300070E004C0440F551F661F771F8A95D2F7B8
:102A40008091BD019091BE01A091BF01B091C001E4
:102A50008A019B01082B192B2A2B3B2BC901B8019A
:102A60001F910F910C94ED140F931F9341E050E0D0
:102A700060E070E004C0440F551F661F771F8A9501
:102A8000D2F7CB01BA016095709580959095009131
:102A9000BD011091BE012091BF013091C0016023A2
:102AA0007123822393231F910F910C94ED140F93A4
:102AB0001F9341E050E060E070E004C0440F551FF8
:102AC000661F771F8A95D2F78091BD019091BE0154
:102AD000A091BF01B091C0018A019B01082719276D
:102AE0002A273B27C901B8011F910F910C94ED14BF
:102AF0000F931F930091BD011091BE012091BF0162
:102B00003091C001602B712B822B932B1F910F9161
:102B10000C94ED140F931F930091BD011091BE0111
:102B20002091BF013091C001602371238223932340
:102B30001F910F910C94ED140F931F930091BD0101
:102B40001091BE012091BF013091C0016027712713
:102B5000822793271F910F910C94ED14089527E07D
:102B6000929F800D1124982F977041E001C0440F6F
:102B70009A95EAF786958695869595E0899FF00166
:102B80001124E057FE4F90E080E070E05191DF01AA
:102B900011979B01082E02C0369527950A94E2F7FB
:102BA000217021952527242325272C9301968530F4
:102BB000910561F7089527E0929F800D1124982FC9
:102BC000977086958695869525E0829FF001112461
:102BD000E057FE4F50E040E080E0219130E0092EC8
:102BE00002C0369527950A94E2F721703327042E08
:102BF00001C0220F0A94EAF7822B4F5F5F4F4530E6
:102C0000510559F70895BF92CF92DF92EF92FF924C
:102C10000F931F93CF93DF938C01C090BD01D09091
:102C2000BE01E090BF01F090C0018091C101909180
:102C3000C201A091C301B091C401C82AD92AEA2ACD
:102C4000FB2ACFE1D0E0BC2ED701C6010C2E04C078
:102C5000B695A795979587950A94D2F780FD0EC0F3
:102C6000219788F7B12C8B2DDF91CF911F910F9178
:102C7000FF90EF90DF90CF90BF900895B8018C2F18
:102C80000E941503019761F3EECFCF93DF93EC0120
:102C90000E940316BE01DF91CF910C9415031F9380
:102CA000CF93DF93EB0190915701992331F0CB0142
:102CB000DF91CF911F910C944516882379F0CB01B9
:102CC0000E940316182F682FCE010E94AF15BE0177
:102CD000812FDF91CF911F910C941503CB010E949E
:102CE000DB15182FF4CF682F809103019091040118
:102CF0000C949918682F80910301909104010C9411
:102D0000A41880910301909104010C94AF18809154
:102D1000C50185958595859508958091C501877034
:102D200008959091C501977081E009F480E00895BD
:102D30008091E90108959091E901892B8093E9013F
:102D4000089580959091E90198239093E901089561
:102D50001092E90108959091E801892B8093E80190
:102D6000089580959091E80198239093E801089543
:102D70001092E80108959091E701892B8093E70173
:102D8000089580959091E70198239093E701089525
:102D90001092E70108958091C601089508950C945A
:102DA000CE169091C601981721F08093C6010C941D
:102DB000CF1608958091C601882329F01092C6018C
:102DC00080E00C94CF160895E0910301F091040186
:102DD0008091E9018083E0910301F09104018081F9
:102DE0009091E801892B8083E0910301F091040127
:102DF00080819091E701892B80839091C60199236E
:102E000081F0E0910301F09104018081892B80839E
:102E100080910301909104010E94051881110E9484
:102E2000DA1680910301909104010C94210D08950C
:102E30000C94171798E0899F90011124622B6093DE
:102E4000C5010E9413158091C501859585958595CD
:102E50000C9418171092C50180E00C9418179091EB
:102E6000C501809589238093C501282F277071F4AF
:102E7000282F082E000C330B9217130639F0859576
:102E8000859585950E9434150C942A17089590E035
:102E900080E00E949E2021E08C3E9E4F09F020E0C1
:102EA000822F089582E090E00C94962083E090E0D9
:102EB0000C949620CF9384E090E00E949620C82F37
:102EC00081E290E00E949620982F8C2FCF91089558
:102ED000CF93C92F682F84E090E00E94A4206C2F2C
:102EE00081E290E0CF910C94A42086E090E00C94D5
:102EF0009620682F86E090E00C94A420AB01BC01E2
:102F00008FE090E00C94B620AB01BC0183E190E02F
:102F10000C94B62060E070E0CB010C94841760E064
:102F200070E0CB010E947E170C948A176CEE7EEF46
:102F300090E080E00E94C22060E082E090E00E9489
:102F4000A42060E083E090E00E94A4201092C101E0
:102F50001092C2011092C3011092C40160E084E09B
:102F600090E00E94A42060E081E290E00E94A42012
:102F700060E085E090E00E94A42060E086E090E0C0
:102F80000E94A4206FEF87E090E00E94A42040E020
:102F900050E0BA0188E090E00E94B62060E08DE049
:102FA00090E00E94A42040E050E0BA0188E190E067
:102FB0000E94B62060E087E190E00E94A42040E0FB
:102FC00050E0BA018CE190E00E94B62060E080E21F
:102FD00090E00E94A42040E050E0BA0188E190E037
:102FE0000E94B6200C948F170C9496178EE090E0F8
:102FF0000E94962091E0811101C090E0892F0895F0
:10300000682F8EE090E00C94A420FC013296809111
:103010000F01882321F0809147029EE187FF96E00F
:1030200080E0915008F4089521912223D1F38F5F1D
:10303000F8CF662301F120910F012223F1F02091B6
:10304000470227FF1AC0462F4695469546954E31B2
:1030500090F4677021E030E002C0220F331F6A95C0
:10306000E2F7840F911DFC01828190E0282339232F
:1030700081E0232B69F480E00895FC0132960896E4
:103080002191261721F0E817F907D1F7F4CF81E055
:1030900008959C01FC0132969FEF80E04191461714
:1030A00051F09F3F19F4411101C0982F8F5F863076
:1030B000A9F79F3F09F40895290F311D97FD3A950F
:1030C000F90162830895FC01329608962191261336
:1030D00003C0DF0111971C92E817F907B9F70895AB
:1030E000E62FE695E695E695EE3168F4E80FF92FC0
:1030F000F11D677021E030E001C0220F6A95EAF708
:103100008281822B82830895E62FE695E695E695E7
:10311000EE3170F4E80FF92FF11D677021E030E017
:1031200001C0220F6A95EAF7209582812823228325
:10313000089520910F01222329F02091470227FDB5
:103140000C9470180C94491820910F01222329F037
:103150002091470227FD0C9484180C946318FC01FD
:10316000329680910F01882351F08091470287FFAA
:1031700006C08EE1DF011D928A95E9F7089586E089
:10318000F9CF089508950C94C2180E94C318809135
:103190004D02843061F11092EB0188E190E020E46F
:1031A0000FB6F894A895809360000FBE209360003E
:1031B00080E00E94AD0780E00E94ED020E94C318EB
:1031C00083B7817F846083BF83B7816083BF789436
:1031D000889583B78E7F83BF0FB6F894A8958091AA
:1031E0006000886180936000109260000FBE0895B7
:1031F0000895CF930E94C1180E9470050E94F8188C
:10320000C0E08C2F0E94E504811105C0CF5FCA3059
:10321000C1F7CF91089581E0FCCF08950C940D196A
:103220000E9419110E94AF060E94150D0E94ED0226
:103230000C940E191F921FB61F9211248F939F9307
:10324000AF93BF938091EB01811113C08091430232
:1032500090914402A0914502B09146024196A11D71
:10326000B11D8093430290934402A0934502B09312
:103270004602BF91AF919F918F911F901FBE1F90EB
:10328000189582E084BD93E095BD9AEF97BD809339
:103290006E0008952FB7F8948091430290914402F4
:1032A000A0914502B09146022FBF08959C014FB7EF
:1032B000F8948091430290914402A0914502B0910C
:1032C00046024FBF821B930B089578941F921FB63E
:1032D0001F9211248F939F93AF93BF9380914302CA
:1032E00090914402A0914502B09146020196A11D21
:1032F000B11D8093430290934402A0934502B09382
:103300004602BF91AF919F918F911F901FBE1F905A
:10331000189587E797E7909301088093000888E164
:103320009AE00FB6F894A895809360000FBE909332
:103330006000FFCF0E944717811102C00E94F4175E
:103340000E9452178093EA010E945A1790934802F4
:10335000809347020E945617682F70E090E080E04B
:103360000E94B1146091BD017091BE018091BF01B6
:103370009091C0010C94EB1480910C020895089573
:103380000895CF93DF93EC0180910F018823B1F171
:103390008091470287FF32C060E282E08093E900BB
:1033A0008FEF9091E800815095FD06C095ED9A95BC
:1033B000F1F700008111F5CF8091E80085FF1BC077
:1033C00080910F0170E050E040E0811104C050E0B6
:1033D00040E068E070E0CE010E948B1B8091E80025
:1033E0008E778093E80080E2FE01ACEEB1E00190C0
:1033F0000D928A95E1F7DF91CF91089568E081E021
:10340000CDCF089580914C02811109C00E941B1DEF
:103410000E94781D8091E20084608093E20008950C
:1034200010924C020895089508950C94101942E0EA
:1034300061EC81E00E94971C42E261EC82E00C9416
:10344000971C80914F02833009F45FC030F48130C3
:10345000C1F1823009F49BC008958A3009F487C015
:103460008B3009F46DC0893009F04EC080914E0256
:10347000813209F049C08091520290915302029723
:1034800008F042C08091E800877F8093E800809137
:10349000E80082FF35C09091F3008091F20002971E
:1034A00029F48091F1008B7F813021F48091F1002B
:1034B00080930C028091E8008B778093E8000C9455
:1034C000CB1C80914E02813AF9F48091E800877F0D
:1034D0008093E8008091520290915302892B61F40D
:1034E00060E28CEE91E070E00E94DA1B8091E800CF
:1034F0008B778093E800089560E090E080E0F3CF60
:1035000080914D028111C3CF089580914E02813A7E
:10351000D9F78091520290915302892BA9F780919B
:10352000E800877F8093E8008091E80080FFFCCF6F
:1035300080910F018093F1008091E8008E77BDCFDC
:1035400080914E02813201F7809152029091530294
:10355000892BD1F68091E800877F8093E8000E9454
:10356000CB1C8091500280930F010C941911809113
:103570004E02813249F68091E800877F8093E8000F
:103580000E94CB1C8091510280930D02089580917E
:103590004E02813A09F0B8CF8091E800877F80938E
:1035A000E8008091E80080FFFCCF80910D02C2CF3F
:1035B00084B7877F84BF0FB6F894A8958091600088
:1035C000886180936000109260000FBE80E890E0F8
:1035D0000FB6F89480936100909361000FBE0E9433
:1035E000750D0E941B1D0E94781D8091E200846071
:1035F0008093E20078940E9401200E947F0D85E074
:1036000091E00E94100D80914D02853039F00E94AA
:103610008D0D0E947D0D0E947E0DF5CF0E94C51874
:1036200080914B02882379F30E94F918882359F37B
:103630000E94751BE8CF0C941D1B292F33272330C4
:10364000310519F168F42130310509F444C0223004
:10365000310509F445C090E080E030E020E025C06D
:103660002132310549F122323105A9F780E490E099
:1036700028E632E061157105C1F08BE390E02DE2A0
:1036800032E06130710589F0E6CF992781309105EC
:1036900081F0009729F00297F1F6E4ECF1E002C026
:1036A000ECEDF1E0849190E09F01FA0131832083F9
:1036B0000895E4EDF1E0F6CF89E090E022EF31E00B
:1036C0006115710591F389E090E02BE032E0613003
:1036D000710559F3C0CF82E190E02BE132E0E5CFF4
:1036E0008BE390E020EE31E0E0CF80E189BD82E124
:1036F00089BD09B400FEFDCF8091D8008F7D8093F5
:10370000D8008091E00082608093E0008091E0002A
:1037100081FDFCCF0895AF92BF92CF92DF92FF92CE
:103720000F931F93CF93DF936C01EB018A010E94EB
:10373000EA1CF82E811123C00115110539F0F8019A
:1037400080819181C81BD90BC80ED91EB12CA12C28
:103750002097A9F08091E80085FD22C08091E800C3
:103760008E778093E80001151105A1F0F8018081A2
:103770009181A80EB91EB182A08285E0F82E8F2D0E
:10378000DF91CF911F910F91FF90DF90CF90BF906D
:10379000AF9008950E94EA1C8823D1F2F82EEFCF53
:1037A000F60181916F018093F1002197FFEFAF1A2D
:1037B000BF0ACECFFC01809154029091550286172A
:1037C0009707A0F06115710529F49091E8009E77A4
:1037D0009093E80090E06115710551F4911108C0D3
:1037E0008091E80082FF34C080E00895BC01F2CFF0
:1037F00080914D028823C1F18530C1F18091E800AC
:1038000083FD30C08091E80082FDEACF8091E8001E
:1038100080FFE1CF8091F3002091F200382F6115F5
:10382000710519F02830310558F091E02830310544
:1038300009F090E02091E8002E772093E800CBCFAC
:1038400081918093F100615071092F5F3F4FE7CF65
:1038500080914D02882341F0853041F08091E8004D
:1038600083FFBECF81E0089582E0089583E008954C
:10387000FC01809154029091550286179707A0F0A1
:103880006115710529F48091E8008E778093E80036
:1038900090E06115710551F4911108C08091E80024
:1038A00082FF35C080E00895BC01F2CF80914D02C7
:1038B0008823C9F18530C9F18091E80083FD31C0CA
:1038C0008091E80082FDEACF8091E80080FFE1CF9F
:1038D0008091F3002091F200382F6115710519F0E5
:1038E0002830310558F091E02830310509F090E09A
:1038F0008091E8008E778093E800CBCF849180930D
:10390000F1003196615071092F5F3F4FE6CF8091F2
:103910004D02882341F0853041F08091E80083FF1B
:10392000BDCF81E0089582E0089583E00895982F47
:10393000973028F08F708093E90081E0089590938C
:10394000E900242F762F50E0981731F07091EC00A9
:103950002091ED005091F00021FD02C09F5FE8CF63
:103960003091EB003E7F3093EB003091ED003D7FD6
:103970003093ED003091EB0031603093EB007093A9
:10398000EC002093ED005093F0002091EE0027FD15
:10399000E5CF80E0089580914E0287FF13C08091AB
:1039A000E80082FF06C08091E8008B778093E800F2
:1039B00004C080914D028111F2CF089580914D0293
:1039C0008823D9F38091E80080FFF8CF8091E80048
:1039D0008E77ECCF2091E4003091E50095E6A901C7
:1039E0002091EC00822F817020FF06C08091E800BA
:1039F00080FF06C080E008952091E80022FD1AC0F3
:103A000080914D02882389F0853089F08091EB0008
:103A100085FD0FC02091E4003091E5004217530767
:103A2000F9F29150E1F684E0089582E0089583E090
:103A3000089581E008950E94891D0E94911DE0EE85
:103A4000F0E0808181608083E8EDF0E080818F7715
:103A5000808319BCA7EDB0E08C918E7F8C93808120
:103A60008F7E808310924C0208950F931F93CF9303
:103A7000DF930E94891D0E94911DC8EDD0E08881CE
:103A80008F77888388818068888388818F7D888309
:103A900019BC10924D021092490210924B021092E2
:103AA0004A0200EE10E0F80180818B7F80838881DC
:103AB0008160888342E060E080E00E94971CE1EE34
:103AC000F0E080818E7F8083E2EEF0E08081816093
:103AD0008083808188608083F80180818E7F8083ED
:103AE000888180618883DF91CF911F910F91089524
:103AF000E8EDF0E080818F7E8083E7EDF0E080816B
:103B00008160808384E082BF81E080934C020C94CA
:103B1000351DE8EDF0E080818E7F80831092E20019
:103B200008951092DA001092E10008951F920F920A
:103B30000FB60F9211242F933F934F935F936F9380
:103B40007F938F939F93AF93BF93EF93FF93809156
:103B5000E10082FF0BC08091E20082FF07C08091EC
:103B6000E1008B7F8093E1000E9400208091DA00C9
:103B700080FF19C08091D80080FF15C08091DA00C5
:103B80008E7F8093DA008091D90080FF96C080E11B
:103B900089BD82E189BD09B400FEFDCF81E080933B
:103BA0004D020E94021A8091E10080FF19C08091AD
:103BB000E20080FF15C08091E2008E7F8093E200DA
:103BC0008091E20080618093E2008091D800806261
:103BD0008093D80019BC85E080934D020E94141A8E
:103BE0008091E10084FF2BC08091E20084FF27C018
:103BF00080E189BD82E189BD89B5982F917080FFF0
:103C0000FBCF8091D8008F7D8093D8008091E10018
:103C10008F7E8093E1008091E2008F7E8093E200AE
:103C20008091E20081608093E200809149028823C4
:103C300009F449C084E080934D020E94151A8091D6
:103C4000E10083FF29C08091E20083FF25C08091BD
:103C5000E100877F8093E10082E080934D02109223
:103C600049028091E1008E7F8093E1008091E20023
:103C70008E7F8093E2008091E20080618093E20079
:103C800042E060E080E00E94971C8091F000886034
:103C90008093F0000E94131AFF91EF91BF91AF91B2
:103CA0009F918F917F916F915F914F913F912F9154
:103CB0000F900FBE0F901F90189519BC10924D02D7
:103CC0000E94101A70CF8091E30087FD93E09093DB
:103CD0004D02B3CF1F920F920FB60F9211242F9364
:103CE0003F934F935F936F937F938F939F93AF9384
:103CF000BF93CF93DF93EF93FF93D091E900DF70F1
:103D00008091EC00C82FC17080FDC0E81092E900DE
:103D10008091F000877F8093F00078940E94AE1E1F
:103D20001092E9008091F00088608093F000CD2B24
:103D3000CF70C093E900FF91EF91DF91CF91BF91D8
:103D4000AF919F918F917F916F915F914F913F9133
:103D50002F910F900FBE0F901F9018951F93CF9328
:103D6000DF93CDB7DEB7AA970FB6F894DEBF0FBECC
:103D7000CDBF8EE492E02091F100FC012193CF01B0
:103D8000F2E086359F07B9F70E94211A8091E8007A
:103D900083FF1EC180914E0290914F029A3008F02D
:103DA00017C1E92FF0E0E850FF4D0C9476208038E1
:103DB00099F0823809F00CC1809152028F708730DF
:103DC00008F006C18093E9008091EB0085FB88270D
:103DD00080F91092E90006C080914A0290914B024E
:103DE000911182609091E800977F9093E800809312
:103DF000F1001092F1008091E8008E77E5C08823F1
:103E000009F4D3C0823009F0E3C0809150028111DF
:103E1000D6C0809152028F702FEF280F263008F005
:103E2000D7C08093E9002091EB0020FFC8C09330F9
:103E300031F48091EB0080628093EB00C0C09091E0
:103E4000EB0090619093EB0021E030E001C0220F85
:103E50008A95EAF72093EA001092EA008091EB003D
:103E60008860EACF8111B4C0109150021F77809111
:103E7000E3008078812B8093E3008091E800877FC6
:103E80008093E8000E94CB1C8091E80080FFFCCF6B
:103E90008091E30080688093E30082E0111183E069
:103EA00080934D0295C08058823008F091C0809177
:103EB0005002909151028C3D23E09207A1F583E0DE
:103EC0008A838AE289834FB7F894DE01139620E053
:103ED0003EE051E2E32FF0E050935700E49120FFE1
:103EE00003C0E295EF703F5FEF708E2F90E0EA30F5
:103EF000C0F0C7968D939D932F5F243159F74FBF24
:103F00008091E800877F8093E8006AE270E0CE014C
:103F100001960E94DA1B8091E8008B778093E8007D
:103F200057C0C096E7CF6091520270915302AE0124
:103F30004F5F5F4F0E941B1BBC01892B09F448C0D7
:103F40009091E800977F9093E80089819A810E9480
:103F5000381CE1CF8038E1F58091E800877F8093BD
:103F6000E800809149028093F10045CF811130C073
:103F700090915002923060F58091E800877F8093A5
:103F8000E800909349020E94CB1C8091490288234B
:103F900011F084E005C08091E30087FDFACF81E055
:103FA00080934D020E94171A13C0809150028130F5
:103FB00079F481E0933009F080E080934B02109215
:103FC000E9008091E800877F8093E8000E94CB1C85
:103FD0008091E80083FF0AC08091E800877F80938A
:103FE000E8008091EB0080628093EB00AA960FB608
:103FF000F894DEBF0FBECDBFDF91CF911F91089522
:104000000895CF9380914D028823A1F0C091E900DB
:10401000CF709091EC00892F817090FD80E8C82BC3
:104020001092E9008091E80083FD0E94AE1ECF70DF
:10403000C093E900CF910895DB018F939F930E9475
:104040008B20BF91AF91A29F800D911DA39F900DDA
:10405000B29F900D11240895AA1BBB1B51E107C00C
:10406000AA1FBB1FA617B70710F0A61BB70B881F08
:10407000991F5A95A9F780959095BC01CD01089597
:1040800097FB072E16F4009407D077FD09D00E9405
:104090002C2007FC05D03EF4909581959F4F089504
:1040A000709561957F4F0895A1E21A2EAA1BBB1B44
:1040B000FD010DC0AA1FBB1FEE1FFF1FA217B307F4
:1040C000E407F50720F0A21BB30BE40BF50B661F0A
:1040D000771F881F991F1A9469F7609570958095CE
:1040E00090959B01AC01BD01CF010895EE0FFF1F1C
:1040F0000590F491E02D0994A29FB001B39FC001F7
:10410000A39F700D811D1124911DB29F700D811D03
:104110001124911D08950E947C20A59F900DB49FAD
:10412000900DA49F800D911D11240895F999FECF43
:1041300092BD81BDF89A992780B50895A8E1B0E0B5
:1041400042E050E00C94CA20262FF999FECF92BD90
:1041500081BDF89A019700B4021639F01FBA20BD4C
:104160000FB6F894FA9AF99A0FBE08950396272F7E
:104170000E94A5200E94A420252F0E94A520242F64
:104180000C94A5200196272F0E94A5200C94A42012
:10419000DC01CB01FC01F999FECF06C0F2BDE1BD07
:1041A000F89A319600B40D9241505040B8F70895F6
:1041B000F894FFCF070F070F5F0F5F0F340F340F17
:1041C000340F340FB10F3D104C104C10A810340FA9
:1041D000340FB1102811281131113111331131115F
:1041E00031113111281128113811311131113811C3
:1041F000D71EFF1EE81FFF1EE81F321F531FE81FB8
:04420000AA1FB61F1C
:1042040001F492C701BC19C119BF19C019011A01DF
:1042140097C634F5F6F73194353632330000000092
:104224000000FF0100010000FFFF0000010001FF8A
:02423400000088
:00000001FF
